{
  "_format": "hh-sol-artifact-1",
  "contractName": "TestBiconomy",
  "sourceName": "contracts/TestBiconomy.sol",
  "abi": [
    {
      "inputs": [
        {
          "internalType": "string",
          "name": "_greeting",
          "type": "string"
        },
        {
          "internalType": "address",
          "name": "trustedForwarder",
          "type": "address"
        }
      ],
      "stateMutability": "nonpayable",
      "type": "constructor"
    },
    {
      "inputs": [
        {
          "internalType": "string",
          "name": "_msg",
          "type": "string"
        }
      ],
      "name": "SayHello",
      "outputs": [],
      "stateMutability": "nonpayable",
      "type": "function"
    },
    {
      "inputs": [],
      "name": "greet",
      "outputs": [
        {
          "internalType": "string",
          "name": "",
          "type": "string"
        }
      ],
      "stateMutability": "view",
      "type": "function"
    },
    {
      "inputs": [
        {
          "internalType": "address",
          "name": "forwarder",
          "type": "address"
        }
      ],
      "name": "isTrustedForwarder",
      "outputs": [
        {
          "internalType": "bool",
          "name": "",
          "type": "bool"
        }
      ],
      "stateMutability": "view",
      "type": "function"
    }
  ],
  "bytecode": "60a06040523480156200001157600080fd5b5060405162000a2238038062000a22833981810160405281019062000037919062000340565b808073ffffffffffffffffffffffffffffffffffffffff1660808173ffffffffffffffffffffffffffffffffffffffff1681525050508160009080519060200190620000859291906200008e565b5050506200040b565b8280546200009c90620003d5565b90600052602060002090601f016020900481019282620000c057600085556200010c565b82601f10620000db57805160ff19168380011785556200010c565b828001600101855582156200010c579182015b828111156200010b578251825591602001919060010190620000ee565b5b5090506200011b91906200011f565b5090565b5b808211156200013a57600081600090555060010162000120565b5090565b6000604051905090565b600080fd5b600080fd5b600080fd5b600080fd5b6000601f19601f8301169050919050565b7f4e487b7100000000000000000000000000000000000000000000000000000000600052604160045260246000fd5b620001a7826200015c565b810181811067ffffffffffffffff82111715620001c957620001c86200016d565b5b80604052505050565b6000620001de6200013e565b9050620001ec82826200019c565b919050565b600067ffffffffffffffff8211156200020f576200020e6200016d565b5b6200021a826200015c565b9050602081019050919050565b60005b83811015620002475780820151818401526020810190506200022a565b8381111562000257576000848401525b50505050565b6000620002746200026e84620001f1565b620001d2565b90508281526020810184848401111562000293576200029262000157565b5b620002a084828562000227565b509392505050565b600082601f830112620002c057620002bf62000152565b5b8151620002d28482602086016200025d565b91505092915050565b600073ffffffffffffffffffffffffffffffffffffffff82169050919050565b60006200030882620002db565b9050919050565b6200031a81620002fb565b81146200032657600080fd5b50565b6000815190506200033a816200030f565b92915050565b600080604083850312156200035a576200035962000148565b5b600083015167ffffffffffffffff8111156200037b576200037a6200014d565b5b6200038985828601620002a8565b92505060206200039c8582860162000329565b9150509250929050565b7f4e487b7100000000000000000000000000000000000000000000000000000000600052602260045260246000fd5b60006002820490506001821680620003ee57607f821691505b60208210811415620004055762000404620003a6565b5b50919050565b6080516105fc62000426600039600060ce01526105fc6000f3fe608060405234801561001057600080fd5b50600436106100415760003560e01c80630739fb8714610046578063572b6c0514610062578063cfae321714610092575b600080fd5b610060600480360381019061005b91906103b1565b6100b0565b005b61007c60048036038101906100779190610458565b6100ca565b60405161008991906104a0565b60405180910390f35b61009a610122565b6040516100a79190610543565b60405180910390f35b80600090805190602001906100c69291906101b4565b5050565b60007f000000000000000000000000000000000000000000000000000000000000000073ffffffffffffffffffffffffffffffffffffffff168273ffffffffffffffffffffffffffffffffffffffff16149050919050565b60606000805461013190610594565b80601f016020809104026020016040519081016040528092919081815260200182805461015d90610594565b80156101aa5780601f1061017f576101008083540402835291602001916101aa565b820191906000526020600020905b81548152906001019060200180831161018d57829003601f168201915b5050505050905090565b8280546101c090610594565b90600052602060002090601f0160209004810192826101e25760008555610229565b82601f106101fb57805160ff1916838001178555610229565b82800160010185558215610229579182015b8281111561022857825182559160200191906001019061020d565b5b509050610236919061023a565b5090565b5b8082111561025357600081600090555060010161023b565b5090565b6000604051905090565b600080fd5b600080fd5b600080fd5b600080fd5b6000601f19601f8301169050919050565b7f4e487b7100000000000000000000000000000000000000000000000000000000600052604160045260246000fd5b6102be82610275565b810181811067ffffffffffffffff821117156102dd576102dc610286565b5b80604052505050565b60006102f0610257565b90506102fc82826102b5565b919050565b600067ffffffffffffffff82111561031c5761031b610286565b5b61032582610275565b9050602081019050919050565b82818337600083830152505050565b600061035461034f84610301565b6102e6565b9050828152602081018484840111156103705761036f610270565b5b61037b848285610332565b509392505050565b600082601f8301126103985761039761026b565b5b81356103a8848260208601610341565b91505092915050565b6000602082840312156103c7576103c6610261565b5b600082013567ffffffffffffffff8111156103e5576103e4610266565b5b6103f184828501610383565b91505092915050565b600073ffffffffffffffffffffffffffffffffffffffff82169050919050565b6000610425826103fa565b9050919050565b6104358161041a565b811461044057600080fd5b50565b6000813590506104528161042c565b92915050565b60006020828403121561046e5761046d610261565b5b600061047c84828501610443565b91505092915050565b60008115159050919050565b61049a81610485565b82525050565b60006020820190506104b56000830184610491565b92915050565b600081519050919050565b600082825260208201905092915050565b60005b838110156104f55780820151818401526020810190506104da565b83811115610504576000848401525b50505050565b6000610515826104bb565b61051f81856104c6565b935061052f8185602086016104d7565b61053881610275565b840191505092915050565b6000602082019050818103600083015261055d818461050a565b905092915050565b7f4e487b7100000000000000000000000000000000000000000000000000000000600052602260045260246000fd5b600060028204905060018216806105ac57607f821691505b602082108114156105c0576105bf610565565b5b5091905056fea2646970667358221220d7c7ba3643efd7d935683624fff01839e8f44dc07180262929ae5032632a7b6b64736f6c634300080900330000000000000000000000000000000000000000000000000000000000000040000000000000000000000000e041608922d06a4f26c0d4c27d8bcd01daf1f792000000000000000000000000000000000000000000000000000000000000000568656c6c6f000000000000000000000000000000000000000000000000000000",
  "deployedBytecode": "0x608060405234801561001057600080fd5b50600436106100415760003560e01c8063572b6c0514610046578063a413686214610076578063cfae321714610092575b600080fd5b610060600480360381019061005b91906102c9565b6100b0565b60405161006d9190610311565b60405180910390f35b610090600480360381019061008b9190610472565b610108565b005b61009a610122565b6040516100a79190610543565b60405180910390f35b60007f000000000000000000000000000000000000000000000000000000000000000073ffffffffffffffffffffffffffffffffffffffff168273ffffffffffffffffffffffffffffffffffffffff16149050919050565b806000908051906020019061011e9291906101b4565b5050565b60606000805461013190610594565b80601f016020809104026020016040519081016040528092919081815260200182805461015d90610594565b80156101aa5780601f1061017f576101008083540402835291602001916101aa565b820191906000526020600020905b81548152906001019060200180831161018d57829003601f168201915b5050505050905090565b8280546101c090610594565b90600052602060002090601f0160209004810192826101e25760008555610229565b82601f106101fb57805160ff1916838001178555610229565b82800160010185558215610229579182015b8281111561022857825182559160200191906001019061020d565b5b509050610236919061023a565b5090565b5b8082111561025357600081600090555060010161023b565b5090565b6000604051905090565b600080fd5b600080fd5b600073ffffffffffffffffffffffffffffffffffffffff82169050919050565b60006102968261026b565b9050919050565b6102a68161028b565b81146102b157600080fd5b50565b6000813590506102c38161029d565b92915050565b6000602082840312156102df576102de610261565b5b60006102ed848285016102b4565b91505092915050565b60008115159050919050565b61030b816102f6565b82525050565b60006020820190506103266000830184610302565b92915050565b600080fd5b600080fd5b6000601f19601f8301169050919050565b7f4e487b7100000000000000000000000000000000000000000000000000000000600052604160045260246000fd5b61037f82610336565b810181811067ffffffffffffffff8211171561039e5761039d610347565b5b80604052505050565b60006103b1610257565b90506103bd8282610376565b919050565b600067ffffffffffffffff8211156103dd576103dc610347565b5b6103e682610336565b9050602081019050919050565b82818337600083830152505050565b6000610415610410846103c2565b6103a7565b90508281526020810184848401111561043157610430610331565b5b61043c8482856103f3565b509392505050565b600082601f8301126104595761045861032c565b5b8135610469848260208601610402565b91505092915050565b60006020828403121561048857610487610261565b5b600082013567ffffffffffffffff8111156104a6576104a5610266565b5b6104b284828501610444565b91505092915050565b600081519050919050565b600082825260208201905092915050565b60005b838110156104f55780820151818401526020810190506104da565b83811115610504576000848401525b50505050565b6000610515826104bb565b61051f81856104c6565b935061052f8185602086016104d7565b61053881610336565b840191505092915050565b6000602082019050818103600083015261055d818461050a565b905092915050565b7f4e487b7100000000000000000000000000000000000000000000000000000000600052602260045260246000fd5b600060028204905060018216806105ac57607f821691505b602082108114156105c0576105bf610565565b5b5091905056fea2646970667358221220cfaf5d36b4cc0eefcd0c4d611b09ffc14be3ed2fff1abd4077db248507b841ec64736f6c63430008090033",
  "linkReferences": {},
  "deployedLinkReferences": {}
}